:100000000C945D000C9485000C9485000C94850084
:100010000C9485000C9485000C9485000C9485004C
:100020000C9485000C9485000C9485000C94740449
:100030000C9485000C9485000C9485000C9485002C
:100040000C942A040C9485000C94F8030C94D203AD
:100050000C9485000C9485000C9485000C9485000C
:100060000C9485000C94850000000008000201003B
:100070000003040700000000000000000000000072
:10008000250028002B0000000000240027002A0083
:10009000040404040404040402020202020203032E
:1000A0000303030301020408102040800102040836
:1000B0001020010204081020F00611241FBECFEF0B
:1000C000D8E0DEBFCDBF11E0A0E0B1E0E8E5FAE1A5
:1000D00002C005900D92AA37B107D9F722E0AAE72E
:1000E000B1E001C01D92AB34B207E1F710E0CDE5FD
:1000F000D0E004C02197FE010E94FF0BCC35D10750
:10010000C9F70E94BA070C942A0D0C94000090E0E5
:10011000FC01EC55FF4F249180579F4FFC018491C7
:10012000882399F090E0880F991FFC01EA57FF4F50
:10013000A591B491FC01E458FF4F859194918FB73C
:10014000F894EC91E22BEC938FBF0895AF92BF929D
:10015000CF92DF92EF92FF920F931F93CF93DF9393
:100160006C017B018B01040F151FEB015E01AE18C2
:10017000BF08C017D10759F06991D601ED91FC91E4
:100180000190F081E02DC6010995892B79F7C50111
:10019000DF91CF911F910F91FF90EF90DF90CF9063
:1001A000BF90AF900895FC01538D448D252F30E012
:1001B000842F90E0821B930B541710F0CF96089574
:1001C00001970895FC01918D828D981761F0A28DA1
:1001D000AE0FBF2FB11D5D968C91928D9F5F9F7367
:1001E000928F90E008958FEF9FEF0895FC01918D1D
:1001F000828D981731F0828DE80FF11D858D90E08A
:1002000008958FEF9FEF0895FC01918D228D892F26
:1002100090E0805C9F4F821B91098F73992708950E
:1002200083E891E00E94040121E0892B09F420E099
:10023000822F089580E090E0892B29F00E94100120
:1002400081110C9400000895FC01A48DA80FB92F12
:10025000B11DA35ABF4F2C91848D90E001968F73EE
:100260009927848FA689B7892C93A089B1898C910D
:10027000837080648C93938D848D981306C002885C
:10028000F389E02D80818F7D80830895EF92FF9226
:100290000F931F93CF93DF93EC0181E0888F9B8DA9
:1002A0008C8D98131AC0E889F989808185FF15C063
:1002B0009FB7F894EE89FF896083E889F989808186
:1002C0008370806480839FBF81E090E0DF91CF9155
:1002D0001F910F91FF90EF900895F62E0B8D10E077
:1002E0000F5F1F4F0F731127E02E8C8D8E110CC0E6
:1002F0000FB607FCFACFE889F989808185FFF5CF31
:10030000CE010E942401F1CFEB8DEC0FFD2FF11DEA
:10031000E35AFF4FF0829FB7F8940B8FEA89FB896D
:1003200080818062CFCFCF93DF93EC01888D8823CB
:10033000B9F0AA89BB89E889F9898C9185FD03C048
:10034000808186FD0DC00FB607FCF7CF8C9185FF2D
:10035000F2CF808185FFEDCFCE010E942401E9CF4D
:10036000DF91CF91089590E0FC01E859FF4F24916F
:10037000FC01EC55FF4F3491FC01E057FF4FE49135
:10038000EE23C9F0222339F0233001F1A8F4213003
:1003900019F1223029F1F0E0EE0FFF1FE458FF4F72
:1003A000A591B4918FB7F894EC91611126C0309566
:1003B0003E233C938FBF08952730A9F02830C9F021
:1003C000243049F7809180008F7D03C080918000A8
:1003D0008F7780938000DFCF84B58F7784BDDBCFAC
:1003E00084B58F7DFBCF8091B0008F778093B00074
:1003F000D2CF8091B0008F7DF9CF3E2BDACF8E30F7
:1004000008F08E508770806480937C0080917A0021
:10041000806480937A0080917A0086FDFCCF809181
:1004200078009091790008953FB7F89480917F010A
:1004300090918001A0918101B091820126B5A89B85
:1004400005C02F3F19F00196A11DB11D3FBFBA2F66
:10045000A92F982F8827BC01CD01620F711D811D26
:10046000911D42E0660F771F881F991F4A95D1F7AB
:1004700008958F929F92AF92BF92CF92DF92EF92A8
:10048000FF924B015C010E9414026B017C010E94EF
:1004900014026C197D098E099F09683E734081051D
:1004A0009105A8F321E0821A9108A108B10888EE0D
:1004B000C80E83E0D81EE11CF11C81149104A10434
:1004C000B10429F7FF90EF90DF90CF90BF90AF90ED
:1004D0009F908F900895089590E080E00895FC012A
:1004E00001900020E9F73197AF01481B590BBC017F
:1004F00082E292E00C94A600CF93DF93EC0160E0DF
:100500008E810E94B30161E08E810E94B30160E0A0
:100510008E810E94B3018BE891E00197F1F7DF91A2
:10052000CF910895CF92DF92EF92FF920F931F9396
:10053000CF93DF936C017C0187E0E80EF11CD0E0E3
:10054000C0E0062F10E0B8010C2E02C0759567952B
:100550000A94E2F76170F70181917F010E94B30173
:100560002196C430D10579F7C601DF91CF911F9153
:100570000F91FF90EF90DF90CF900C947C02CF9280
:10058000DF92EF92FF920F931F93CF93DF93EC01D3
:10059000F62E642F8C810E94B3018D818F3F19F05C
:1005A00060E00E94B3010F2D10E08F8584FF25C00D
:1005B0006E0187E0C80ED11CF12CE12CB8010E2C85
:1005C00002C0759567950A94E2F76170F601819112
:1005D0006F010E94B301FFEFEF1AFF0A88E0E816EF
:1005E000F10461F7CE01DF91CF911F910F91FF9040
:1005F000EF90DF90CF900C947C02B80184E0759569
:1006000067958A95E1F7CE010E9492026F2DCE0187
:10061000DF91CF911F910F91FF90EF90DF90CF90DE
:100620000C94920240E0682F82E292E00C94BF02A8
:1006300081E00E9412038BE39FE10197F1F7089597
:10064000CF93DF93823029F4909131029860909398
:100650003102809335021092360280E48093370293
:1006600080E18093380280E58093390280912602F0
:100670000E948700809127028F3F11F00E9487001F
:10068000809128020E948700C2E2D2E09E0122529D
:1006900032408091310284FD0AC084E090E02196CE
:1006A000281739073CF48E810E948700EFCF88E03D
:1006B00090E0F5CF8BE39DE00197F1F760E080914A
:1006C00026020E94B30160E0809128020E94B301DB
:1006D000809127028F3F19F060E00E94B301809162
:1006E000310284FD34C063E082E292E00E94920213
:1006F000CBE4D6E4CE010197F1F763E082E292E029
:100700000E9492022197F1F763E082E292E00E9458
:10071000920283E592E00197F1F762E082E292E0D3
:100720000E9492028091310280620E94120384E052
:10073000809332028CE00E9412030E94180382E030
:100740008093330286E0DF91CF910C941203806294
:100750000E9412038BE496E40197F1F78091310235
:1007600080620E94120383E592E00197F1F7809185
:10077000310280620E941203D5CF90913502691731
:1007800010F06FEF690FE62FF0E0EE5DFD4F9489FA
:10079000890F80680C94120341E00E94BF0281E03F
:1007A00090E008951F920F920FB60F9211242F938D
:1007B0003F934F935F936F937F938F939F93AF93E9
:1007C000BF93EF93FF9383E891E00E942401FF9190
:1007D000EF91BF91AF919F918F917F916F915F91B9
:1007E0004F913F912F910F900FBE0F901F90189532
:1007F0001F920F920FB60F9211242F938F939F93F6
:10080000EF93FF93E0919301F09194018081E09147
:100810009901F0919A0182FD1BC0908180919C0109
:100820008F5F8F7320919D01821741F0E0919C01B1
:10083000F0E0ED57FE4F958F80939C01FF91EF9173
:100840009F918F912F910F900FBE0F901F90189531
:100850008081F4CF1F920F920FB60F9211242F9325
:100860003F938F939F93AF93BF9380917B01909120
:100870007C01A0917D01B0917E0130917A0123E04D
:10088000230F2D3758F50196A11DB11D20937A0134
:1008900080937B0190937C01A0937D01B0937E01B6
:1008A00080917F0190918001A0918101B09182019E
:1008B0000196A11DB11D80937F0190938001A093AB
:1008C0008101B0938201BF91AF919F918F913F9130
:1008D0002F910F900FBE0F901F90189526E8230FB1
:1008E0000296A11DB11DD2CF1F920F920FB60F928B
:1008F00011242F923F924F925F926F927F928F922C
:100900009F92AF92BF92CF92DF92EF92FF920F939E
:100910001F932F933F934F935F936F937F938F9387
:100920009F93AF93BF93EF93FF93CF93DF9300D049
:1009300000D0CDB7DEB7F89420912002309121028B
:100940003A832983F12CE12CD12CC12CA981BA81C5
:1009500011968C9111978C151D04C1F0BCF0129664
:10096000ED91FC91EE0DFF1DFC83EB8380810E94D5
:10097000FF01AB81BC8119969C938E931897BFEFB2
:10098000CB1ADB0AECE3EE0EF11CE0CF312C212C6C
:1009900010E000E050E6852E5AEE952EA12CB12CE9
:1009A000A981BA8111968C9111978017110609F0CF
:1009B0000CF4EAC11296ED91FC91E20DF31DFC835B
:1009C000EB8340A851A862A873A8808D918DA28D59
:1009D000B38D480E591E6A1E7B1E40AA51AA62AAF8
:1009E00073AA84899589A689B7897201E81AF90AD8
:1009F000868597850C97978786878685978597FD47
:100A0000C2C086859785873F99400CF0BFC0AB81F7
:100A1000BC811E968D919C91EB81FC819787868786
:100A200080859185C0ACD1AC8C159D05CCF48285B8
:100A3000938565E070E00E94AA0BCB01880F991F97
:100A4000680F791F6E157F055CF42085318586A9B6
:100A500097A92817390724F48085918597AB86AB31
:100A6000AB81BC8118968D919C911997C816D906B7
:100A70009CF418962D913C911997D4968D919C9148
:100A8000D5978217930744F418968D919C911997E6
:100A9000D5969C938E93D497BBEFEB16F1040CF490
:100AA000ABC0EB81FC8180859185C816D9060CF01E
:100AB000A3C084858111A0C08285938565E070E024
:100AC0000E94AA0BCB01880F991F680F791F6E1522
:100AD0007F050CF091C021E0248784899589A6893F
:100AE000B789F201E81BF90BAB81BC811B96FC9323
:100AF000EE931A97FD01448A558A668A778A83ADF8
:100B0000882371F013AE7C96CD01C096AB81BC8179
:100B10001A962D913C91219331938E179F07B1F72F
:100B2000EB81FC8182AD8823A1F112AE21E023AFDD
:100B3000AB81BC8112968D919C91139797FD08C053
:100B40001C962C9161E0211101C060E00E94B3016C
:100B5000EB81FC81E480F580F7FCECC0868597850D
:100B60006AE070E00E94AA0B7C836B838E2D0E944A
:100B700087002B813C81232B09F0ACC060E08E2DD7
:100B80000E94B301D7C090E080E046CF86EF99E0A5
:100B900043CFEB81FC817C964B815C81425D5F4F52
:100BA00030E020E08281938181939193280F391F57
:100BB0004E175F07B9F7AB81BC811A968D919C9156
:100BC0001B979F969C938E939E97820F931F6AE02C
:100BD00070E00E94960B9B0150E040E0C501B4011B
:100BE0000E94BE0BEB81FC813783268321E02587A1
:100BF00086EF99E097878687AB81BC8118968D91A7
:100C00009C9119978C159D053CF51C968C911C9711
:100C1000882311F11C961C921C97D6964D915C91DD
:100C2000D797D4962D913C91D597241B350B53968D
:100C30003C932E93529752968D919C9197FD0196DD
:100C400095958795840F951FEB81FC8191AF80AFBF
:100C500095AB84AB97AB86ABF5ECEF16F9E0FF06EE
:100C60000CF466CFAB81BC8150968D919C915197CD
:100C7000D9969C938E93D897E0E0F2E0D596FC93BA
:100C8000EE93D497D796FC93EE93D69754964D92C5
:100C90005D926D927C925797E1E0DA96EC93DA9749
:100CA000DB961C92DB971D961C921D9717961C9243
:100CB0001E92169728E532E01B963C932E931A97C6
:100CC0001C961C921C9784E690E053969C938E93FE
:100CD00052972ECF8B819C818F3F910511F461E05B
:100CE0004ECFF701FF27E859FF4FE491E33071F150
:100CF00050F4E130D1F0E23019F1AB81BC81A03881
:100D0000B1056CF73BCFE73069F1E830A1F1E43091
:100D1000A1F7809180008062809380002B813C81CC
:100D200030938B0020938A0005C084B5806884BD11
:100D30009B8197BD0F5F1F4FBCE32B0E311C30CE44
:100D400084B5806284BDAB81A8BDF4CF8091800062
:100D5000806880938000EB81FC81F0938900E093B0
:100D60008800E8CF8091B00080688093B0003B811C
:100D70003093B300DFCF8091B00080628093B000E9
:100D80008B818093B400D6CF81E0E981FA8180879E
:100D900078940F900F900F900F90DF91CF91FF916B
:100DA000EF91BF91AF919F918F917F916F915F91E3
:100DB0004F913F912F911F910F91FF90EF90DF90F6
:100DC000CF90BF90AF909F908F907F906F905F90EB
:100DD0004F903F902F900F900FBE0F901F9018953F
:100DE000109286011092850188EE93E0A0E0B0E0B9
:100DF0008093870190938801A0938901B0938A0121
:100E000088E191E0909384018093830185EC90E0E8
:100E10009093900180938F0184EC90E090939201E5
:100E20008093910180EC90E09093940180939301E2
:100E300081EC90E0909396018093950182EC90E094
:100E4000909398018093970186EC90E090939A019B
:100E50008093990110929C0110929D0110929E0125
:100E600010929F01109244021092430282E090E09F
:100E700090934602809345028AE392E09093210288
:100E80008093200281E080933B028CE390E00E94FB
:100E9000050CFC018EE090E0918380838FEF9FEF43
:100EA000938382839583848382E090E0A0E0B0E026
:100EB000808F918FA28FB38FDF015C96CF01C09698
:100EC0001D921D928A179B07D9F7158617821682E5
:100ED0008EEE92E093878287148610AA11AA12AA36
:100EE00013AA148A158A168A178A80E092E095ABB5
:100EF00084AB97AB86AB86E292E0918B808B91AF0F
:100F000080AF84E690E0938B828B81E082AF13AE5A
:100F100017861686F0933D02E0933C02109225025C
:100F2000109224028AE291E090932302809322029D
:100F300082E0809326028FEF8093270283E08093E4
:100F4000280284E08093290285E080932A0286E0CB
:100F500080932B0287E080932C0210922D02109236
:100F60002E0210922F02109230021092310281E074
:100F70000C942003789484B5826084BD84B581602C
:100F800084BD85B5826085BD85B5816085BD809154
:100F90006E00816080936E001092810080918100CC
:100FA00082608093810080918100816080938100C4
:100FB000809180008160809380008091B100846086
:100FC0008093B1008091B00081608093B0008091E7
:100FD0007A00846080937A0080917A0082608093A6
:100FE0007A0080917A00816080937A0080917A0003
:100FF000806880937A001092C100E0919301F09193
:10100000940182E08083E0918F01F0919001108241
:10101000E0919101F09192018FEC808310929B01FD
:10102000E0919701F091980186E08083E09195012D
:10103000F0919601808180618083E0919501F0912B
:101040009601808188608083E0919501F0919601FE
:10105000808180688083E0919501F0919601808184
:101060008F7D808382E00E94200380E40E9412032F
:10107000C7E0D1E0699182E292E00E94CC0381E076
:10108000CF30D807B9F788E40E941203C0E0D1E05E
:1010900008E011E0699182E292E00E94CC030C1713
:1010A0001D07C1F7E0913C02F0913D02F89486E201
:1010B00092E0918B808B91AF80AF78948BE00E940F
:1010C000870010E000E0F12CE12C80913B028E15AE
:1010D0001F0429F124F1C0913C02D0913D02C00FC0
:1010E000D11F8A819B8197FD06C00E94870060E026
:1010F0008A810E94B3018C819D8197FD0AC00E9464
:101100008700CC818C2F0E94870060E08C2F0E948A
:10111000B3018FEFE81AF80A045C1F4FD6CF0E9484
:1011200014026053784F8F4F9F4F60933E0270932D
:101130003F0280934002909341021092420210922B
:101140003A0210928000109282008CE0809381001D
:101150008CE790E0909389008093880082E08093F0
:101160006F00789460E083E00E94BD0382E391E029
:101170000E946F0261E083E00E94BD038DE391E075
:101180000E946F0264EF71E080E090E00E943902FB
:101190000E941803C0E0D0E0E0913C02F0913D02D3
:1011A00086819781F894258515867894222309F401
:1011B0005CC0893791050CF49DC00E9418030AE0B9
:1011C00010E061E085E00E94BD0388E491E00E94A8
:1011D0006F0261E08BE00E94B30160EA7FE080E093
:1011E00090E00E9439020E94180361E086E00E94AC
:1011F000BD038FE491E00E946F0260E08BE00E94EB
:10120000B30160ED77E080E090E00E9439020E9437
:10121000180361E085E00E94BD0384E591E00E942F
:101220006F0261E08BE00E94B30160EA7FE080E042
:1012300090E00E9439020E94180361E082E00E945F
:10124000BD038BE591E00E946F0260E08BE00E949D
:10125000B30160ED77E080E090E00E9439020E94E7
:1012600018030150110909F0ACCF8FE00E94FF0173
:10127000BC01990F880B990B0E94740A20E030E0A2
:1012800040EA50E40E94290B20E030EC4FE754E4A0
:101290000E94000A6B017C0120E030E0A9010E945D
:1012A000240B18160CF040C020E030E040E85FE36B
:1012B000C701B6010E94FB0987FF36C060E08FE0DE
:1012C0000E94BD0360E082E292E00E94CC0368EEDF
:1012D00073E080E090E00E9439020E94180320979A
:1012E00009F45ACF0E941001882309F455CF0E94B7
:1012F000000052CF60E080E00E94BD0388E691E0EC
:101300000E946F0261E080E00E94BD0383E791E0EC
:101310000E946F0261E08FE00E94BD0361E082E203
:1013200092E00E94CC03A1CF20E030E040E85FE3F0
:10133000C701B6010E94240B1816B4F426E636E65F
:1013400046E150E4C701B6010E94FB0987FF0CC0CB
:1013500060E08FE00E94BD0360E082E292E00E94C4
:10136000CC0360E08EE0ACCF26E636E646E150E402
:10137000C701B6010E94240B1816FCF42DEC3CECBE
:101380004CE650E4C701B6010E94FB0987FF15C077
:1013900060E08FE00E94BD0360E082E292E00E9484
:1013A000CC0360E08EE00E94BD0360E082E292E048
:1013B0000E94CC0360E08DE083CF60E08FE00E946C
:1013C000BD0360E082E292E00E94CC0360E08EE028
:1013D0000E94BD0360E082E292E00E94CC0360E0E4
:1013E0008DE00E94BD0360E082E292E00E94CC03A7
:1013F00060E08CE065CF0E94AF0A08F481E00895B8
:101400000E94140A0C94EA0A0E94E30A58F00E940F
:10141000DC0A40F029F45F3F29F00C94D30A511103
:101420000C941E0B0C94D90A0E94FB0A68F39923B2
:10143000B1F3552391F3951B550BBB27AA276217D0
:101440007307840738F09F5F5F4F220F331F441FDD
:10145000AA1FA9F335D00E2E3AF0E0E832D0915011
:101460005040E695001CCAF72BD0FE2F29D0660FFE
:10147000771F881FBB1F261737074807AB07B0E841
:1014800009F0BB0B802DBF01FF2793585F4F3AF047
:101490009E3F510578F00C94D30A0C941E0B5F3FCD
:1014A000E4F3983ED4F3869577956795B795F795CD
:1014B0009F5FC9F7880F911D9695879597F90895B5
:1014C000E1E0660F771F881FBB1F62177307840751
:1014D000BA0720F0621B730B840BBA0BEE1F88F760
:1014E000E0950895E89409C097FB3EF490958095A7
:1014F000709561957F4F8F4F9F4F9923A9F0F92FDA
:1015000096E9BB279395F695879577956795B79557
:10151000F111F8CFFAF4BB0F11F460FF1BC06F5F3D
:101520007F4F8F4F9F4F16C0882311F096E911C04F
:10153000772321F09EE8872F762F05C0662371F070
:1015400096E8862F70E060E02AF09A95660F771F84
:10155000881FDAF7880F9695879597F90895990F60
:101560000008550FAA0BE0E8FEEF16161706E8076D
:10157000F907C0F012161306E407F50798F0621B8E
:10158000730B840B950B39F40A2661F0232B242B63
:10159000252B21F408950A2609F4A140A6958FEF82
:1015A000811D811D089597F99F6780E870E060E0D4
:1015B00008959FEF80EC089500240A9416161706EC
:1015C00018060906089500240A9412161306140634
:1015D00005060895092E0394000C11F4882352F097
:1015E000BB0F40F4BF2B11F460FF04C06F5F7F4F4F
:1015F0008F4F9F4F089557FD9058440F551F59F036
:101600005F3F71F04795880F97FB991F61F09F3FEF
:1016100079F087950895121613061406551FF2CF18
:101620004695F1DF08C0161617061806991FF1CF68
:1016300086957105610508940895E894BB2766278F
:101640007727CB0197F908950E94AF0A08F48FEF2E
:1016500008950E943C0B0C94EA0A0E94DC0A38F0C0
:101660000E94E30A20F0952311F00C94D30A0C9405
:10167000D90A11240C941E0B0E94FB0A70F3959F4B
:10168000C1F3950F50E0551F629FF001729FBB2779
:10169000F00DB11D639FAA27F00DB11DAA1F649F15
:1016A0006627B00DA11D661F829F2227B00DA11DC8
:1016B000621F739FB00DA11D621F839FA00D611D4E
:1016C000221F749F3327A00D611D231F849F600D6F
:1016D000211D822F762F6A2F11249F5750409AF098
:1016E000F1F088234AF0EE0FFF1FBB1F661F771F24
:1016F000881F91505040A9F79E3F510580F00C94EF
:10170000D30A0C941E0B5F3FE4F3983ED4F3869506
:1017100077956795B795F795E7959F5FC1F7FE2B8E
:10172000880F911D9695879597F90895AA1BBB1B65
:1017300051E107C0AA1FBB1FA617B70710F0A61BD1
:10174000B70B881F991F5A95A9F780959095BC01F2
:10175000CD01089597FB072E16F4009407D077FD6E
:1017600009D00E94960B07FC05D03EF49095819518
:101770009F4F0895709561957F4F0895052E97FBB3
:101780001EF400940E94D50B57FD07D00E94DD0B7C
:1017900007FC03D04EF40C94D50B50954095309532
:1017A00021953F4F4F4F5F4F0895909580957095CD
:1017B00061957F4F8F4F9F4F0895A1E21A2EAA1B6C
:1017C000BB1BFD010DC0AA1FBB1FEE1FFF1FA217F1
:1017D000B307E407F50720F0A21BB30BE40BF50BEE
:1017E000661F771F881F991F1A9469F76095709577
:1017F000809590959B01AC01BD01CF010895EE0F3E
:10180000FF1F0590F491E02D09940F931F93CF9340
:10181000DF938230910510F482E090E0E09149027C
:10182000F0914A0230E020E0B0E0A0E0309799F477
:101830002115310509F44AC0281B390B2430310524
:10184000D8F58A819B816115710589F1FB0193832C
:101850008283FE0111C040815181028113814817AA
:101860005907E0F04817590799F4109761F012965C
:101870000C93129713961C933296CF01DF91CF9160
:101880001F910F9108950093490210934A02F4CFDB
:101890002115310551F04217530738F0A901DB013A
:1018A0009A01BD01DF01F801C1CFEF01F9CF90939B
:1018B0004A0280934902CDCFFE01E20FF31F8193CC
:1018C00091932250310939832883D7CF2091470241
:1018D00030914802232B41F42091100130911101E5
:1018E000309348022093470220910E0130910F015E
:1018F0002115310541F42DB73EB7409112015091A9
:101900001301241B350BE0914702F0914802E217C6
:10191000F307A0F42E1B3F0B2817390778F0AC0112
:101920004E5F5F4F2417350748F04E0F5F1F5093EF
:10193000480240934702819391939FCFF0E0E0E00B
:101940009CCFCF93DF930097E9F0FC01329713828D
:101950001282A0914902B0914A02ED0130E020E0EC
:101960001097A1F420813181820F931F20914702AB
:10197000309148022817390709F061C0F0934802F6
:10198000E0934702DF91CF910895EA01CE17DF0778
:10199000E8F54A815B819E0141155105B1F7E901E6
:1019A000FB83EA8349915991C40FD51FEC17FD07BA
:1019B00061F4808191810296840F951FE9019983DA
:1019C0008883828193819B838A83F0E0E0E0129692
:1019D0008D919C9113970097B9F52D913C9111979A
:1019E000CD010296820F931F209147023091480249
:1019F0002817390739F6309751F510924A0210929C
:101A00004902B0934802A0934702BCCFD383C2835C
:101A100040815181840F951FC817D90761F44E5F2B
:101A20005F4F88819981480F591F518340838A8174
:101A30009B81938382832115310509F0B0CFF09308
:101A40004A02E09349029ECFFD01DC01C0CF138220
:081A50001282D7CFF894FFCFFA
:101A5800000A1F1F0E04001F1F1F1F1F1F1F00004B
:101A68004B028000000000004601A600D30093014D
:101A78000401E200F60000000000CC03A6006C029E
:101A88006B0257656C636F6D6520746F00502E4153
:101A98002E4D2E4F2E432100496E68616C6500481B
:101AA8006F6C6400457868616C6500596F752061DA
:101AB8007265207361666500457665727974686938
:0A1AC8006E67006973206F6B000069
:00000001FF
